:020000040800F2
:1000000040C70020610200085F180008F1150008D1
:100010005D180008AD030008951C000800000000F2
:10002000000000000000000000000000A101000826
:10003000AF03000800000000FD0100086918000877
:100040007B0200087B0200087B0200087B0200089C
:100050007B0200087B0200087B0200087B0200088C
:100060007B0200087B0200087B0200087B0200087C
:100070007B0200087B0200087B0200087B0200086C
:100080007B0200087B0200087B0200087B0200085C
:100090007B0200087B0200087B0200087B0200084C
:1000A0007B0200087B0200087B0200087B0200083C
:1000B0007B0200087B0200087B0200087B0200082C
:1000C0007B0200087B0200087B0200087B0200081C
:1000D0007B0200087B0200087B0200087B0200080C
:1000E0007B0200087B0200087B0200087B020008FC
:1000F0007B0200087B0200087B0200087B020008EC
:100100007B0200087B0200087B0200087B020008DB
:100110007B0200087B0200087B0200082919000806
:100120007B0200087B0200087B0200087B020008BB
:100130007B0200087B0200087B0200087B020008AB
:100140007B0200087B0200087B0200087B0200089B
:100150007B0200087B0200087B0200087B0200088B
:100160007B0200087B0200087B0200087B0200087B
:100170007B0200087B0200087B02000800000000F0
:100180007B0200087B020008DFF810D000F0FCF8CA
:1001900000480047E91C0008AFF3008040C700207A
:1001A0002C4B19680868B0E8F04F80F30988BFF35A
:1001B0006F8F4FF0000080F311887047000000003F
:1001C00008480068006880F308884FF0000080F35A
:1001D000148862B661B6BFF34F8FBFF36F8F00DF35
:1001E00000BF00BF08ED00E0DFF80C00016841F43B
:1001F00070010160704700BF88ED00E0EFF30980F7
:10020000BFF36F8F134B1A681EF0100F08BF20ED5D
:10021000108A20E9F04F106009B44FF0500080F3CD
:100220001188BFF34F8FBFF36F8F02F02BFC4FF09D
:10023000000080F3118809BC19680868B0E8F04F25
:100240001EF0100F08BFB0EC108A80F30988BFF3CE
:100250006F8F70471C000020EFF30580704700008F
:100260000648804706480047FEE7FEE7FEE7FEE750
:10027000FEE7FEE7FEE7FEE7FEE7FEE719190008E6
:10028000890100082DE9F05F0546002092469B4653
:1002900088460646814640241BE02846414647469C
:1002A000224600F061F853465A46C01A914110D3D5
:1002B00011461846224600F048F82D1A67EB01084F
:1002C0004F4622460120002100F03FF817EB0009BD
:1002D0004E41201EA4F10104DFDC484631462A4687
:1002E0004346BDE8F09F10B5431A934209D28318E4
:1002F000881803E010F8011D03F8011D521EF9D201
:1003000010BD40EA01039B0703D009E008C9121F92
:1003100008C0042AFAD203E011F8013B00F8013BBF
:10032000521EF9D210BDD2B201E000F8012B491ED5
:10033000FBD270470022F6E710B513460A46044682
:100340001946FFF7F0FF204610BD202A04DB203AB3
:1003500000FA02F1002070479140C2F1200320FA18
:1003600003F3194390407047202A04DB203A21FA16
:1003700002F00021704721FA02F3D040C2F12002BE
:100380009140084319467047064C074D06E0E06867
:1003900040F0010394E8070098471034AC42F6D3CC
:1003A000FFF7F6FE2835000848350008FEE77047DD
:1003B00072B6FEE730B5B3F5804F05D06FF07041EF
:1003C00040F82210002030BD8C690B688D682343F3
:1003D0004C688989240144EA0524234343EA014106
:1003E00050F82230014C23401943E9E70000F0CFD8
:1003F00010B50A6850F8223023F0010340F822308B
:100400008C68082C23D000234A682243CC681C4304
:100410000B6922431A434B690E4C1A43CB691A43AA
:100420000B6A1A434B6A1A438B6A1A43CB6A1A4304
:100430000B6B1A438B691343CA6B09681A4350F854
:100440002130A343134340F82130002010BD402346
:10045000DAE700007FFF0F0030B5D1E9003443EA4E
:1004600004138C688D89240244EA054423430C8AD2
:10047000074D00EB820005EB045423430C7D6D0116
:1004800005EB0464896923430B434360002030BDBE
:100490000000F0FFF0B587B014216846FFF74AFF6F
:1004A00015480168002924D1012101601348002466
:1004B000016841F0010101600068022500F00100BF
:1004C00005904FF68470CDE9000502AA03260C279B
:1004D00082E8D00069460A4800F016F84CF2B37082
:1004E000CDE9000502AA694682E8D000054800F07F
:1004F0000BF807B0F0BD00000400002038380240BF
:1005000000100240000C02402DE9F84FDFF8BCA1BA
:100510000022012503264FF00F090AF1040BAAF16E
:10052000040E00BF0B6805FA02F42340A34270D109
:100530000F7907F00307012F01D0022F16D187682A
:100540004FEA420806FA08FC27EA0C07D1F80CC06B
:100550000CFA08FC4CEA070CC0F808C04768A7432F
:100560000C79C4F3001494403C4344600C79E44398
:10057000A4070AD0C4684FEA420C06FA0CF7BC4341
:100580008F6807FA0CF72743C7600C7904F003045F
:10059000022C12D1D40800EB840CDCF82040570761
:1005A000FF0E09FA07F824EA0804D1F8108008FAC7
:1005B00007F848EA0408CCF8208004684FEA420CA7
:1005C00006FA0CF7BC430F7907F0030707FA0CF79C
:1005D000274307604C6814F4403F70D03C4C2768B8
:1005E00047F480472760246822F0030704F480441E
:1005F0000094384C07EB040CDCF8084897074FEAE6
:10060000177809FA08F7BC43334FB84202D10027E4
:1006100024E054E0314FB84201D101271EE0304FB1
:10062000B84201D1022719E02E4FB84201D1032769
:1006300014E02D4FB84201D104270FE02B4FB842F0
:1006400001D105270AE02A4FB84201D1062705E06B
:10065000284FB84201D1072700E0082707FA08F71A
:100660002743CCF80878DAF800405746D1F804C0A0
:100670009C435FEACC2C00D51C433C60DBF8004077
:100680005F46D1F804C09C435FEA8C2C00D51C4324
:100690003C60DEF800407746D1F804C09C435FEA36
:1006A0008C3C00D51C433C60084F083F3C68D1F8A7
:1006B00004C09C435FEACC3C00D51C433C60521C08
:1006C000102AFFF42FAFBDE8F88F0000083C01406E
:1006D0004438024000300140000002400004024063
:1006E00000080240000C02400010024000140240CA
:1006F00000180240001C02400AB1816170470904E1
:10070000FBE7000001488068704700000C000020F3
:1007100070B5040025D094F83D00002520B984F878
:100720003C50204600F0B8F8242084F83D002068B2
:10073000016821F0010101602068016841F4004175
:1007400001602068016821F40041016000F05CFA5A
:100750004D4A6168914201D84C4900E04C498842B9
:1007600001D2012070BD4B492368B0FBF1F15E68F6
:1007700026F03F060E435E606368934206D94FF44D
:10078000967359434FF47A73B1FBF3F12368491C14
:100790001E6A26F03F06314319626168914210D803
:1007A0004900401EB0FBF1F2521CC2F30B02042AB6
:1007B00001D2042022E0B0FBF1F0401CC0F30B009A
:1007C0001CE0A268F2B301EBC10303EB0116431E68
:1007D000B3FBF6F35B1C43F480431B0549D092B393
:1007E00001EBC10202EB0111401EB0FBF1F0401C15
:1007F000C0F30B0040F4804040F400402168CA6917
:100800004CF6FF739A431043C861D4E907100143C3
:100810002068026822F0C00211430160D4E903019C
:1008200001432068826848F2FF339A431143816094
:10083000D4E9050108432168CA6822F0FF02104389
:10084000C86001E00EE016E02068016841F0010197
:1008500001602564202084F83D00256384F83E5023
:10086000002070BD01EB4106431EB3FBF6F35B1C99
:10087000B3E70120C2E701EB4101401EB0FBF1F0FC
:10088000401CC0F30B00B7E7A086010080841E0067
:1008900000093D0040420F0010B586B00446142107
:1008A0006846FFF747FD13492068884220D1124867
:1008B0000021026842F002020260006800F00200BB
:1008C0000590C02000901220CDE901010320039083
:1008D0000420049069460948FFF716FE06481030C8
:1008E000016841F400110160006800F400100590F7
:1008F00006B010BD005400403038024000040240F1
:100900000248816802781144816070470C00002021
:100910000B4810B5016841F400710160016841F4B1
:1009200080610160016841F480710160032000F082
:100930009FF80F2000F006F800F050F8002010BDDE
:10094000003C024030B505461F4887B000240168CE
:1009500041F020010160006806A900F0200000902D
:1009600001A800F031F90498A8B100F04DF9400059
:100970001649174AB0FBF1F11648491E026040F2D1
:10098000E732C0E90324C0E90114846100F0BEFB32
:10099000040003D015E000F037F9E9E70D4800F056
:1009A000E3FB04000DD1372000F034F8102D07D2FE
:1009B00000222946372000F03BF80748056000E098
:1009C000012407B0204630BD4038024040420F00AD
:1009D0000014004020020020100000200C4882B0CB
:1009E000016841F480410160006800F4804000909B
:1009F0000748001F016841F0805101600068002233
:100A000000F0805000900F21901E02B000F010B84E
:100A100044380240002809DB00F01F020121914008
:100A20004009800000F1E020C0F80011704700008C
:100A3000F0B40E4B1B680C46C3F30223C3F1070549
:100A4000042D00D90425191D072901D2002300E037
:100A5000DB1E012606FA05F1491E214099409E4001
:100A6000761E16403143F0BC01F015B90CED00E0E4
:100A7000064900F0070208684FF6FF03184040EAF5
:100A80000220034A10430860704700000CED00E0AC
:100A90000000FA052DE9F0470E46050065D0DFF8A5
:100AA0001481D8F80000F7B200F00700B04207D276
:100AB00088F80070D8F8000000F00700B04254D168
:100AC00028683D4C810712D5400703D5206840F4C3
:100AD000E05020602878000703D5206840F460408B
:100AE00020602068A96820F0F00008432060287882
:100AF000C0072DD0304968680839012812D0022873
:100B000013D0032811D00968890700292DDA21683C
:100B100021F0030101432160FFF7F4FD814641F21A
:100B2000883A0EE009688903EFE709688901ECE774
:100B3000FFF7E8FDA0EB0901514502D90320BDE80C
:100B4000F0872068696800F00C00B0EB810FEFD1EE
:100B5000D8F80010404601F00701B14207D90770EC
:100B6000006800F00700B04201D00120E7E72878D4
:100B7000400705D52068E96820F4E050084320606C
:100B80002878000706D52068296920F4604040EAEB
:100B9000C100206000F058F82168084AC1F3031131
:100BA000515CC8400649086006480068FFF7CAFE65
:100BB0000020C4E7003C0240083802400435000829
:100BC00018000020100000200F2202600C4A136859
:100BD00003F003034360136803F0F00383601368BA
:100BE00003F4E053C36012684FF4E05303EAD20207
:100BF00002610448006800F00700086070470000C8
:100C000008380240003C0240044805490068096871
:100C1000044AC1F38221515CC8407047180000208B
:100C2000083802401435000804480549006809687E
:100C3000044AC1F34231515CC8407047180000209B
:100C40000838024014350008154810B5006810F047
:100C50000C02144813D01449042A0FD0082A0ED1CC
:100C60000F4C241F2268236802F03F025B0207D565
:100C70002068C0F38810A0FB010106E0084610BD03
:100C80002168C1F38811A1FB00010023FFF7FAFAE4
:100C90002168C1F30141491C4900B0FBF1F010BDCE
:100CA000083802400024F40040787D012DE9F84F17
:100CB00004006ED02078DFF84C93C007A9F104053A
:100CC0004AD009F104000168C1F38101012908D06B
:100CD0000068C0F3810002280AD1D9F80000400260
:100CE00006D52868800337D560680028E1D033E056
:100CF0006068B0F5803F10D0B0F5A02F286810D004
:100D000020F480302860286820F480202860606803
:100D1000A8B1FFF7F7FC06460DE0286840F48030E4
:100D2000F4E740F480202860F7E700BFFFF7EAFC13
:100D3000801B642873D828688003F7D50CE0FFF780
:100D4000E1FC064605E000BFFFF7DCFC801B6428E1
:100D5000F0D828688003F7D42078DFF8AC828007C9
:100D60004FF0000A3ED5A748001D016811F00C0F96
:100D700008D00068C0F3810002280BD1D9F8000028
:100D8000400207D42868800716D5E068012800D102
:100D900012E033E1E068B8B10120C8F80000FFF7C5
:100DA000B1FC064605E000BFFFF7ACFC801B022843
:100DB000C0D828688007F7D52868216920F0F80096
:100DC00040EAC10028600DE0C8F800A0FFF79AFCD7
:100DD000064604E0FFF796FC801B02281FD828680F
:100DE0008007F7D42078000722D5864F87486169AD
:100DF000703771B101210160FFF784FC064604E001
:100E0000FFF780FC801B022809D838688007F7D5D7
:100E10000EE0C0F800A0FFF775FC064605E082E092
:100E2000FFF770FC801B02287DD838688007F7D454
:100E30002078400768D5DFF8CCB100270BF13C0BD8
:100E4000DBF80000C0000BD4DBF8001041F080514B
:100E5000CBF80010DBF80000012700F08050009074
:100E60006B4E3068C00510D4306840F4807030603C
:100E7000FFF748FC009005E0FFF744FC0099401A9A
:100E8000022850D83068C005F6D55E4EA0686C3692
:100E900001280FD00528306810D020F00100306004
:100EA000306820F004003060A068B8B1FFF72AFC79
:100EB00000900FE0306840F00100F4E740F00400DB
:100EC0003060F7E7FFF71EFC0099411A41F28830C5
:100ED000814266D830688007F4D50EE0FFF712FC37
:100EE000009007E0FFF70EFC0099411A41F28830AC
:100EF000814256D830688007F4D42FB1DBF8001057
:100F000021F08051CBF80010A069C8B33D49091DFC
:100F10000968C1F3810102294AD00228504607D04E
:100F2000C8F8600000E03CE0FFF7ECFB04463BE063
:100F30004746C8F86000FFF7E5FB064605E000BF3E
:100F4000FFF7E0FB801B02282BD828688001F7D42C
:100F5000D4E907010843A16A2E4A490802EB01417E
:100F6000626A41EA8211084394F82C1040EA016158
:100F7000C9F8001001203866FFF7C4FB044606E0FC
:100F80003EE000BFFFF7BEFB001B022809D828681F
:100F90008001F7D534E000BFFFF7B4FB001B022847
:100FA00002D90320BDE8F88F28688001F4D427E037
:100FB0000128F7D0D9F80000E26900F480019142DD
:100FC0001CD1226A00F03F01914217D147F6C0714F
:100FD000626A0140B1EB821F10D1A26A4FF0FF3369
:100FE00000F4403103EB5202B1EB024F06D194F80A
:100FF0002C1000F07060B0EB016F01D00120D1E740
:101000000020CFE70438024000004742800E4742EC
:10101000007000400000FFFF70B515460E4604004A
:1010200003D094F8490010B107E0012070BD002002
:1010300084F84800204600F01DF804F108012068FB
:10104000FFF7D6F93146A2682068FFF705FAD4E920
:1010500001022946236BFFF7ADF92168A06851F81A
:10106000202042F0010241F82020012084F84900AC
:10107000002070BDFFF70EBA7047704770B590F84A
:101080003C20012A32D0012480F83C40022280F822
:101090003D2003685A689D6822F070060A68324352
:1010A0005A60134B02689A4214D0B2F1804F11D0AB
:1010B000104B9A420ED0104B9A420BD00F4B9A42D3
:1010C00008D00F4B9A4205D00E4B9A4202D00E4BDD
:1010D0009A4204D1496825F080031943916080F851
:1010E0003D40002180F83C10084670BD022070BDD4
:1010F000000001400004004000080040000C0040D7
:1011000000040140004001400018004010B50400F8
:1011100003D094F83D0010B107E0012010BD00207D
:1011200084F83C00204600F01EF8022084F83D00C0
:10113000211D206800F0FEFB012084F8460084F8A1
:101140003E0084F83F0084F8400084F8410084F8B1
:10115000420084F8430084F8440084F8450084F891
:101160003D00002010BD704790F83D10012901D0CE
:1011700001207047022180F83D100168CA6842F0E2
:101180000102CA6000681149884214D0B0F1804F52
:1011900011D00F4988420ED00E4988420BD00E491B
:1011A000884208D00D49884205D00D49884202D0B6
:1011B0000C49884204D1816801F00701062903D057
:1011C000016841F00101016000207047000001400A
:1011D0000004004000080040000C004000040140F2
:1011E000004001400018004070472DE9F0410446DE
:1011F0000068C66805694FF00007A90713D5B10755
:1012000011D5F91E016101202077206880698007CF
:10121000204602D0FFF7E8FF04E000F0A9F82046DE
:1012200000F04EF92777680716D5700714D52168A6
:101230006FF004000861022020772068806910F4B4
:10124000407F204602D0FFF7CFFF04E000F090F887
:10125000204600F035F92777280715D5300713D534
:1012600021686FF008000861042020772068C069B9
:101270008007204602D0FFF7B7FF04E000F078F8BF
:10128000204600F01DF92777E80616D5F00614D59C
:1012900021686FF010000861082020772068C0697D
:1012A00010F4407F204602D0FFF79EFF04E000F0DC
:1012B0005FF8204600F004F92777E80708D0F00728
:1012C00006D021686FF001000861204600F0FAF8AE
:1012D000280608D5300606D521686FF08000086121
:1012E0002046FFF7C9FE680608D5700606D52168B6
:1012F0006FF040000861204600F0F8F8A8060AD513
:10130000B00608D521686FF0200008612046BDE8CE
:10131000F041FFF7B2BEBDE8F081000010B586B025
:10132000044614216846FFF705F80E4920688842F4
:1013300015D10D480021026842F0010202600068E8
:1013400000F001000590012000900220CDE901018C
:101350000321CDE9031069460448FFF7D5F806B02C
:1013600010BD0000000C0040303802400000024078
:10137000704770B5044690F83C0000260D460128E1
:101380000FD0012084F83C006AB1042A1DD0082A3D
:101390002FD00C2A3FD00126002084F83C00304694
:1013A00070BD022070BD206800F02CFB20688169B0
:1013B00041F0080181612068816921F004018161A7
:1013C000206881692A69114311E0206800F04AFB16
:1013D0002068816941F4006181612068816921F49C
:1013E00080618161206881692A6941EA0221816105
:1013F000D2E7206800F06CFB2068C16941F0080169
:10140000C1612068C16921F00401C1612068C1691E
:101410002A69114311E0206800F08EFB2068C16941
:1014200041F40061C1612068C16921F48061C1613A
:101430002068C1692A6941EA0221C161ACE710B59F
:10144000040003D094F83D0010B107E0012010BD66
:10145000002084F83C00204600F01EF8022084F8AA
:101460003D00211D206800F065FA012084F8460047
:1014700084F83E0084F83F0084F8400084F841007E
:1014800084F8420084F8430084F8440084F845005E
:1014900084F83D00002010BD08B500680649884268
:1014A00008D10648016841F008010160006800F0B9
:1014B0000800009008BD0000000C004040380240C9
:1014C0007047000070B504460068074DA84201D17E
:1014D000FFF716FA2068A84204D1BDE87040012049
:1014E00000F0F8BB70BD000000140040704770B5FC
:1014F000040004D094F84100002510B106E001205A
:1015000070BD84F84050204600F024F8242084F870
:1015100041002068C16821F40051C160204600F0FC
:1015200033FB2068016921F4904101612068416921
:1015300021F02A0141612068C16841F40051C16075
:101540006564202084F8410084F84200656300202F
:1015500070BD0000F0B587B0044614216846FEF760
:10156000E9FE1F4F236800221E4902240325072697
:101570001D48BB4213D11B4B14331F6847F01007A3
:101580001F601B6803F0100305930B6843F0010311
:101590000B60096801F001010591690215E0134F24
:1015A000BB421AD10F4B10331F6847F400371F603E
:1015B0001B6803F4003305930B6843F001030B60D1
:1015C000096801F0010105910C21CDE9001402AB7D
:1015D000694683E86400FEF797FF07B0F0BD00009E
:1015E000001001403038024000000240004400403A
:1015F000FEE7000010B5044A0021044800F0C6FBD5
:101600000349086010BD0000E034000861180008BC
:101610000000002010B58EB01C216846FEF78AFE3F
:101620001C2107A8FEF786FE1B484FF02041102220
:1016300001601A49416000218160C160C0E9041263
:101640008161C16113020162C0E909139302C0E91B
:101650000B13416381634164032000900F20282312
:10166000CDE9010303AC112384E80E000A24099498
:101670000691CDE907100DF1280C0D918CE80D00B5
:1016800007AA69460448FFF7C7FC002801D0FEF707
:101690008FFE0EB010BD0000A4000020040100A0C9
:1016A00030B587B014216846FEF744FE2148002477
:1016B000016841F010010160016801F0100105911D
:1016C000016841F004010160016801F00401059125
:1016D000016841F080010160016801F0800105911D
:1016E000016841F001010160016801F0010105910B
:1016F000016841F008010160016801F008010591ED
:10170000016841F00201016000680B4D00F0020029
:101710000590012202212846FEF7EEFF022101205A
:10172000CDE90010CDE9024169462846FEF7ECFEFE
:1017300007B030BD30380240000002400D4810B5FF
:101740000B4901600C49416000214FF480428160E7
:10175000C0E9031241618161C1610162FEF7D8FFF6
:10176000002803D0BDE81040FEF722BE10BD0000E7
:1017700000540040F4000020A086010010B58AB09B
:10178000002407941C2168460894FEF7D3FD1648F0
:10179000144901604821C0E901144FF47A71C0E98D
:1017A00003148461FFF74BFE08B1FEF701FE0794B6
:1017B00007A90D480894FFF761FC08B1FEF7F8FD92
:1017C0006020CDE900040294002269460648049492
:1017D000FFF7CFFD08B1FEF7EBFD0348FFF79EFDD5
:1017E0000AB010BD000C0040480100200C4810B5A4
:1017F0000A4901604FF4E1314160002181600C220F
:10180000C160C0E904128161C161FFF770FE002868
:1018100003D0BDE81040FEF7CBBD10BD0010014065
:10182000900100200C4810B50A4901604FF4E131E5
:101830004160002181600C22C160C0E90412816115
:10184000C161FFF754FE002803D0BDE81040FEF749
:10185000AFBD10BD00440040D8010020FEE7FEE708
:10186000012000F058FAFBE710B54FF0E0200069C6
:1018700001F080FC012803D0BDE8104001F0AEB9B2
:1018800010BD000030B593B030216846FEF752FD20
:1018900014210CA8FEF74EFD1D480025016841F0FB
:1018A00080510160006800F0805011901948016873
:1018B00041F4804101600068022400F480401190EE
:1018C0000120039010200490009406940820CDE994
:1018D0000750A820CDE9090404200B906846FFF7C3
:1018E000E5F908B172B6FEE70CA90F2081E83100D6
:1018F0004FF4A0500F904FF48050109005210CA889
:10190000FFF7C8F8002801D072B6FEE713B030BD6B
:1019100040380240007000400248016841F4700104
:101920000160704788ED00E00148FFF75EBC0000F1
:1019300020020020F0B50268274B284D284E294F81
:10194000294C4FF0804C984209D0604507D0A842FE
:1019500005D0B04203D0B84201D0A04204D122F059
:10196000700E4A6842EA0E0298421BD0604519D0B8
:10197000A84217D0B04215D0B84213D0A04211D01F
:101980001A4DA8420ED01A4DA8420BD0194DA842AC
:1019900008D0194DA84205D0184DA84202D0184DC4
:1019A000A84203D122F44075CA682A434D6922F047
:1019B00080022A438D68C5620D688562984201D015
:1019C000A04201D109690163016841F0040101608D
:1019D000012141610260F0BD0000014000040040AF
:1019E00000080040000C004000040140004001409D
:1019F000004401400048014000180040001C004025
:101A000000200040F0B5036A026A22F0010202627F
:101A100042688469124E24F073050C682C4323F04D
:101A200002058B682B430D4DA84201D0B04205D171
:101A300023F00807CB683B4323F00403A84201D0FE
:101A4000B04205D14D6922F4407215438A692A4398
:101A500042608461496841630362F0BD0000014057
:101A600000040140F0B5026A036A23F01003036228
:101A7000436884690D6824F4E64444EA05248D68CB
:101A800022F0200242EA05120F4D104EA84201D06A
:101A9000B04206D1CF6822F0800242EA071222F05B
:101AA0004002A84201D0B04207D14D6923F44063FF
:101AB00043EA85038D6943EA85034360846149688D
:101AC00081630262F0BD000000000140000401409B
:101AD000F0B5026A036A23F4807303624368C46941
:101AE00022F4007224F073050C68124E2C438D68AA
:101AF00042EA05220E4DA84201D0B04206D1CF687D
:101B000022F4006242EA072222F48062A84201D055
:101B1000B04207D14D6923F4405343EA05138D6960
:101B200043EA05134360C4614968C1630262F0BDC2
:101B3000000001400004014030B5046A026A22F44A
:101B4000805202624268C3690D6823F4E64343EAA7
:101B500005238D6824F4005444EA0534084DA84256
:101B600002D0084DA84204D14D6922F4804242EAD5
:101B700085124260C36149680164046230BD00009F
:101B8000000001400004014070B50446006801698E
:101B9000E26821F44051114301612169A068E269C2
:101BA00008436169114308432168CA6849F20C631C
:101BB0009A430243CA6020684169A26921F44071D6
:101BC0001143416131492068884202D0304988423E
:101BD00002D1FFF729F801E0FFF716F8E2690023C8
:101BE000192164253226B2F5004F626828D0A0FB87
:101BF0000101930F9200FEF745FB0146B0FBF5F0A3
:101C00006FF01802504301EB800006EB0010B0FBB0
:101C1000F5F000F0F002B1FBF5F002EB0012B1FBC1
:101C2000F5F06FF01803584301EB800006EB00104D
:101C3000B0FBF5F000F00F0021681044886070BD23
:101C4000A0FB010192185B41FEF71CFB0146B0FBB3
:101C5000F5F00201B1FBF5F06FF01803584301EB0A
:101C6000800006EBC000B0FBF5F000F0F80002EBDE
:101C70004002B1FBF5F0584301EB800006EBC000D9
:101C8000B0FBF5F000F00700D6E7000000100140BF
:101C900000140140FEE70907090E002804DB00F1EB
:101CA000E02080F80014704700F00F0000F1E02001
:101CB00080F8141D704702E008C8121F08C1002AEE
:101CC000FAD170477047002001E001C1121F002ABD
:101CD000FBD17047034900220A704A6810444860EB
:101CE000704700009C000020FEF712FEFFF7CAFDBF
:101CF000FFF7D6FCFFF78EFCFFF720FDFFF73EFD58
:101D0000FFF774FDFFF78EFD00F012F8FFF772FC8D
:101D100000F020F8FEE710B5EFF3058111B16FF088
:101D2000050403E0002408B100F0F8FD204610BDD2
:101D3000EFF3058010B16FF00500704704480168AB
:101D400011B14FF0FF307047012101600020704752
:101D50006C00002010B5EFF3058010B16FF00500A6
:101D600010BD08480168012902D04FF0FF3010BDB6
:101D7000054A002182F8141D0221016000F036FEA0
:101D8000002010BD6C0000200BE000E02DE9FF41B9
:101D90004FEA01034FF00005EFF30581039549BBBE
:101DA00040B38027182100244AB3166806B1344690
:101DB00096691EB13146761E382E02D21679F60784
:101DC00003D0002004B0BDE8F081566906B1B70821
:101DD000D2F808C0BCF1000F0DD0D5685C2D18D327
:101DE00012693AB136B18DE806103A46214601F043
:101DF00096F903900DE0D6685EB912694AB903AA54
:101E0000CDE90012BAB2214601F05CF9012800D0F8
:101E100003950398D6E700002DE9F041134C0F46D7
:101E20000546E6682068001D00F044FC681C07D1E8
:101E300037B12168BDE8F0410D48091D00F08ABCAA
:101E400020683544B5424560216805D2A06BBDE8E5
:101E5000F041091D00F066BC606B091D00F062FCDA
:101E6000A06A854200D2A562BDE8F0811C00002076
:101E7000580700202DE9F041054600F077FC2D4C75
:101E8000A068401CA06020682B4F10B1606930B37F
:101E90002BE02560A068012827D1002606EB8600EC
:101EA00007EB800000F030FC761C382EF6D3234878
:101EB00000F02AFC2148143000F026FC1F4828308E
:101EC00000F022FC1D483C3000F01EFC1B48503046
:101ED00000F01AFC194860631430A06305E0206824
:101EE000E96AC06A884200D82560606A401C606266
:101EF0006864E86A2169884200D9206100EB8000AB
:101F000007EB8000291D00F025FC00F04FFC606904
:101F100000280CD02068E96AC06A884207D20849C4
:101F20004FF080500860BFF34F8FBFF36F8FBDE855
:101F3000F08100001C000020A802002008070020FB
:101F400004ED00E038B500F011FC104C2068C8B971
:101F50000F4800F0D9FB0E48143000F0D5FB0C48B8
:101F6000E060143020610A4B0020F03B009003F148
:101F7000500210210A2000F047FE206010B105A198
:101F800000F096FCBDE8384000F010BC580000207E
:101F90005C080020546D72510000000030B4026CE7
:101FA0000B46002A0BD0C1681144C1608468A1426D
:101FB00001D30168C16030BC1846FEF794B930BC4B
:101FC00070472DE9F041856B174604460026026CE8
:101FD00082B1C7B1E068FEF786F9E168206C091AA2
:101FE000E1602268914202D2A168081AE060022FE3
:101FF00016D017E02068A8B9A06801F033F90646AA
:102000000020A0600EE06068FEF76DF9216C60684A
:1020100008446060A168884204D32068606001E0E1
:1020200005B16D1E6D1CA5633046BDE8F08110B58D
:10203000044690F8590058B101280CD002280FD05E
:10204000502080F31188BFF34F8FBFF36F8FFEE7EF
:10205000206B00F0BFFB2046BDE8104000F0BABB8B
:1020600010BD000010484FF4F041420706D0C01DDB
:102070000D4920F00700411AC1F5F0410B4A002339
:102080000144C2E900030839183A21F00701116040
:102090004B600B600B1AC0E9001393604FF00040D7
:1020A00053605061704700003C0F00208800002002
:1020B000144E154CA6F29C474FF08058DFF84C9018
:1020C00012E000BF00F052FBF068C568281D00F068
:1020D000F1FAA068401EA0606068401E606000F0D9
:1020E00065FB2846FFF7A3FF60680028EAD138683F
:1020F0000128F9D9C9F80080BFF34F8FBFF36F8F64
:10210000F2E70000440700201C00002004ED00E07E
:1021100070B51D46049C51B1C4F80020C4E90F01FC
:102120000121204600F0A4FD84F84C5070BD2460CD
:10213000F4E700002DE9F05F8846DDE90B941546D1
:10214000834691009A460A9EA522206BFEF7EBF883
:102150006FF00301206B01EB8501084420F00707B5
:10216000780707D0502080F31188BFF34F8FBFF35B
:102170006F8FFEE70025B8F1000F0FD05FF0000071
:10218000221818F8001082F8341018F8001011B155
:10219000401C1028F4D384F8435001E084F83450F4
:1021A000382E00D33726E662C4E91365201D00F0FF
:1021B000B6FA04F1180000F0B2FA2461C6F1380052
:1021C0006462A061656584F85850524659463846A5
:1021D00000F05AFA2060B9F1000F01D0C9F80040B0
:1021E000BDE8F09F30B5114900E011460A6882420F
:1021F000FBD34B685C18844203D1406818444860A4
:10220000084643681C18944209D1084C183C2468BD
:10221000A24209D052681A4442600A6812680260F9
:10222000814200D0086030BD0460F9E788000020DA
:1022300070B5002441600B4D0061914206D8D11A5F
:102240008269914206D2011D286907E09A4203D2B1
:10225000994201D3012403E0011DE86800F062FA0D
:10226000204670BD5800002010B5044600F07EFAEC
:10227000A06B28B15FF0000400F098FA204610BD72
:102280000124F9E730B589B03C4D6EE00498002890
:1022900006DADDE90601059A90470498002864DB18
:1022A000069C606910B1201D00F004FA03A800F03C
:1022B000D7F8024604980A2857D2DFE800F005054F
:1022C000052D334A05052D3394F8280040F0010010
:1022D00084F828000599A069059B01442046FFF772
:1022E000A7FF68B3216A2046884794F82800400772
:1022F0003BD5002000900598A1690023421819469B
:10230000204601F0B9F8D8B9502080F31188BFF306
:102310004F8FBFF36F8FFEE714F8280F20F00100F6
:10232000207022E094F8280040F0010084F8280092
:102330000598A06128B1811813462046FFF778FF61
:1023400013E0502080F31188BFF34F8FBFF36F8FDE
:10235000FEE794F82800810703D4204600F03AFAFB
:1023600003E020F0010084F82800002204A9286876
:1023700000F0D2FD002889D109B030BD58000020FE
:102380002DE9FC410F46054600F074FB01A800F062
:1023900067F80446019818B100F0DCFFBDE8FC8145
:1023A000254EAFB130690068D0B30027291B3A46EB
:1023B000306800F091FA00F0CDFF0028EED11F49FF
:1023C0004FF080500860BFF34F8FBFF36F8FE5E78A
:1023D000A542EBD800F0BEFFF0682746C068C4688D
:1023E000201D00F067F994F82800410719D5A0696D
:1023F0002B4641193A462046FFF71AFFA8B10020A4
:102400000346014600902A46204601F035F860B99F
:10241000502080F31188BFF34F8FBFF36F8FFEE71B
:1024200007E020F0010084F82800216A2046884750
:10243000B4E70127BAE700005800002004ED00E0EF
:102440000648416B096829B1416BC968C968496888
:10245000816270474FF0FF31FAE700001C00002056
:1024600070B5054600F094FE064E0446B0688442FE
:1024700003D200F009F8012000E000202860204687
:10248000B46070BD58000020F8B5194D20E0C06858
:10249000C4680668201D00F00DF9216A20468847AF
:1024A00094F82800400713D5A0693044B04206D9FB
:1024B00024616060211DE86800F034F908E0002024
:1024C0000346014600903246204600F0D5FF38B161
:1024D000E86801680029DAD12969C5E90310F8BD67
:1024E000502080F31188BFF34F8FBFF36F8FFEE74B
:1024F0005800002008484068401C4FF0500080F30E
:10250000118804D0BFF34F8FBFF36F8FFEE7BFF387
:102510004F8FBFF36F8FFEE790000020074CE068FD
:10252000016841B1C0680021D0F80000FFF728FF22
:10253000FFF7A8FEF3E701210020F7E7580000208D
:102540002DE9F041044600F011F994F9455004F1E9
:10255000240609E0606A48B1304600F0C3FE08B1C5
:1025600000F00AFA6D1E6DB2002DF3DC4FF0FF365D
:1025700084F8456000F01AF900F0F8F894F9445036
:1025800004F1100709E0206948B1384600F0AAFEBE
:1025900008B100F0F1F96D1E6DB2002DF3DC84F886
:1025A0004460BDE8F04100F001B900002DE9F041C0
:1025B0000546002700F05EFA324E306808B9FFF792
:1025C00051FD706905424ED1C5B3083568070ED07C
:1025D00005F00700C0F108000544680707D0502047
:1025E00080F31188BFF34F8FBFF36F8FFEE72DB3DA
:1025F0007068854237D82348183001460C6801E0DE
:1026000020460C466168A94202D221680029F7D110
:1026100031688C4227D007682168016060680837FC
:10262000411B10290FD96019420708D0502080F3B0
:102630001188BFF34F8FBFF36F8FFEE713E0416048
:102640006560FFF7CFFD61687068401A7060B2681E
:10265000904200D2B060706901430020C4E90001DB
:10266000F068401CF06000F075FE780707D050203D
:1026700080F31188BFF34F8FBFF36F8FFEE73846AB
:10268000BDE8F0817000002010B5031F4FF080748A
:102690001C601B1F21F001011960191F044B0B6006
:1026A00014390A60091F6FF0020244380A6010BD35
:1026B000F5240008D0E9013201699A60D0E90123CC
:1026C0005A604A68824201D182684A6000220261EF
:1026D0000868401E0860086870470000034B0360EC
:1026E00003F15C00086080201060704784080020BF
:1026F000044B036003F15C0008604FF480701060CD
:1027000070470000E00A002000F108014FF0FF329E
:10271000C0E90112C1600161002101607047002120
:102720000161704730B50B685A1C02D000F10802F5
:1027300002E0026904E02246546825689D42FAD905
:1027400053684B6099608A60516008610168491C58
:10275000016030BD42684A6093688B60936859603D
:10276000916008610168491C01607047502080F346
:102770001188BFF34F8FBFF36F8F0A494868401C21
:10278000486001280CD10848006810F0FF0F07D0FE
:10279000502080F31188BFF34F8FBFF36F8FFEE798
:1027A000704700009000002004ED00E008494868F0
:1027B00028B1401E486001D180F311887047502035
:1027C00080F31188BFF34F8FBFF36F8FFEE70000D8
:1027D0009000002070B500282AD0164DA0F1080402
:1027E00060686969084207D1502080F31188BFF3FF
:1027F0004F8FBFF36F8FFEE722683AB1502080F30E
:102800001188BFF34F8FBFF36F8FFEE7884360607F
:1028100000F030F960686968084468602046FFF796
:10282000E1FC2869401C2861BDE8704000F092BDC1
:1028300070BD0000700000204FF0E0200021016119
:10284000816105494FF47A720968B1FBF2F1491EC2
:1028500041610721016170471800002010B5FDF7A4
:10286000FBFC114910280ED300F1E02090F8F00392
:102870000A78904207D2502080F31188BFF34F8F1F
:10288000BFF36F8FFEE709480068896800F4E060D5
:10289000884207D9502080F31188BFF34F8FBFF3D0
:1028A0006F8FFEE710BD0000900000200CED00E0EF
:1028B00010B5084B002200BF53F832401CB1521C27
:1028C000082AF9D310BD43F8321003EBC201486067
:1028D00010BD00006802002070B515460E46044683
:1028E000FFF744FF94F944100020491C01D184F8FB
:1028F000440094F94510491C01D184F84500FFF7C4
:1029000055FFA06B28B92A46314604F1240000F097
:1029100051F82046BDE87040FFF712BE10B5020026
:1029200014D00F48006B38B1502080F31188BFF3EA
:102930004F8FBFF36F8FFEE700F09CF80021104629
:10294000FFF76AFA00F006FD002807D105494FF0AD
:1029500080500860BFF34F8FBFF36F8F10BD000032
:102960001C00002004ED00E002490A6A0260C96808
:10297000416070471C00002001490120C861704778
:102980001C00002010B50C4650B1094909681831E7
:10299000FFF7C8FE2046BDE810400121FFF73CBA12
:1029A000502080F31188BFF34F8FBFF36F8FFEE786
:1029B0001C00002070B514460D4668B10A4909682C
:1029C0001831FFF7C7FE0CB14FF0FF3521462846FE
:1029D000BDE87040FFF720BA502080F31188BFF3A4
:1029E0004F8FBFF36F8FFEE71C00002030B587B01C
:1029F0000024039405AA04A903A80494FFF76EFE1B
:102A0000DDE903010094CDE90110002315A1174869
:102A1000059A00F084FB164D0028E8621FD000F0F4
:102A2000FBFC012809D0401C19D1502080F31188EB
:102A3000BFF34F8FBFF36F8FFEE7502080F31188F5
:102A4000BFF34F8FBFF36F8F4FF0FF30A8620120AD
:102A50006861EC6007B0BDE8304000F045B807B0F1
:102A600030BD000049444C4500000000B120000882
:102A70001C0000200248016B491C016370470000E4
:102A80001C000020164810B5016B11B10121C16175
:102A900010BD0021C1610169124A01E0B9B1491EAE
:102AA00001EB810352F82330002BF7D001EB8103B7
:102AB00002EB830202F1080453685B685360A3428F
:102AC00001D15B685360DA680260016110BD50207B
:102AD00080F31188BFF34F8FBFF36F8FFEE70000C5
:102AE0001C000020A80200201CB537480168374AA6
:102AF000914207D1502080F31188BFF34F8FBFF36D
:102B00006F8FFEE700683149491E884207D1502087
:102B100080F31188BFF34F8FBFF36F8FFEE72C490F
:102B200008780190FF20087008788DF800009DF863
:102B300000009DF8002000F0F000904207D05020E7
:102B400080F31188BFF34F8FBFF36F8FFEE79DF8BF
:102B50000000204C00F0500020700720A06005E02D
:102B60009DF8002052008DF80020401E9DF80020A6
:102B70001206F5D4A060032807D0502080F31188F6
:102B8000BFF34F8FBFF36F8FFEE74FF44070A0602D
:102B9000019808700C482030016841F47001016010
:102BA000016841F070410160FFF746FE002060605F
:102BB000FDF71AFB0848016841F040410160FDF74C
:102BC000FFFA00201CBD000000ED00E071C20F41C3
:102BD00000E400E09000002034EF00E010B5502049
:102BE00080F31188BFF34F8FBFF36F8F00F0D6FAD9
:102BF00018B104494FF080500860002080F311881C
:102C000010BD000004ED00E038B5049D18B153B1CB
:102C1000CAB181B120E0502080F31188BFF34F8FFB
:102C2000BFF36F8FFEE7502080F31188BFF34F8F03
:102C3000BFF36F8FFEE7502080F31188BFF34F8FF3
:102C4000BFF36F8FFEE739B1502080F31188BFF3D7
:102C50004F8FBFF36F8FFEE750241C46012384F88B
:102C600046302B460094FFF753FA204638BD00004B
:102C700070B50D46040025D0FFF778FDD4E90F208C
:102C8000216802FB0011A1600021A163216861603D
:102C90000A46D4E90F01401E00FB0121E1602146F4
:102CA0004FF0FF3001F8440F487004F110008DB16F
:102CB000FFF72AFD04F12400FFF726FDFFF776FD5C
:102CC000012070BD502080F31188BFF34F8FBFF3F8
:102CD0006F8FFEE721690029F0D000F003FB002888
:102CE000ECD004494FF080500860BFF34F8FBFF322
:102CF0006F8FE3E704ED00E02DE9FF4782B01D464A
:102D00008A464FF00008040003D0BAF1000F08D043
:102D100011E0502080F31188BFF34F8FBFF36F8F06
:102D2000FEE7206C38B1502080F31188BFF34F8F3D
:102D3000BFF36F8FFEE7022D0AD1E06B012807D0A9
:102D4000502080F31188BFF34F8FBFF36F8FFEE7E2
:102D500000F010FA3F4F4FF000094FF0805648B98D
:102D6000049838B1502080F31188BFF34F8FBFF320
:102D70006F8FFEE7FFF7FAFCA06BE16B884207D389
:102D8000022D05D00498D0B1B8F1000F1AD01EE082
:102D90002A4651462046FFF714F9616A19B104F139
:102DA000240000F09FFA20B13E60BFF34F8FBFF3C5
:102DB0006F8FFFF7FBFC012006B0BDE8F087FFF73F
:102DC000F5FC22E06846FFF7CFFD4FF00108FFF762
:102DD000EDFCFFF74FFEFFF7C9FC94F94400401CDF
:102DE00001D184F8449094F94500401C01D184F845
:102DF0004590FFF7DBFC04A9684600F029F930B1E3
:102E00002046FFF79DFB00F0A5FA0020D4E7FFF76E
:102E1000ADFCA06BE16B884213D1FFF7C7FC04F156
:102E200010000499FFF7AEFD2046FFF789FB00F084
:102E300091FA00289ED13E60BFF34F8FBFF36F8F92
:102E400098E7FFF7B3FC2046FFF77AFB00F082FA21
:102E500090E7000004ED00E02DE9F0471F469046A2
:102E60008946040003D0B9F1000F08D011E05020CA
:102E700080F31188BFF34F8FBFF36F8FFEE7206C95
:102E800038B1502080F31188BFF34F8FBFF36F8F9D
:102E9000FEE7022F0AD1E06B012807D0502080F313
:102EA0001188BFF34F8FBFF36F8FFEE7FFF7D6FC9C
:102EB0005020EFF3118680F31188BFF34F8FBFF3DB
:102EC0006F8FA06BE16B884206D3022F04D00020E5
:102ED00086F31188BDE8F08794F94550A06B3A4617
:102EE00049462046FFF76DF8681C04D06D1C84F835
:102EF00045500120ECE7606A0028FAD004F1240074
:102F000000F0F0F90028F4D0B8F1000FF1D0012161
:102F1000C8F80010EDE700002DE9F747002683B060
:102F20008A46040003D0BAF1000F08D011E0502007
:102F300080F31188BFF34F8FBFF36F8FFEE7206CD4
:102F400038B1502080F31188BFF34F8FBFF36F8FDC
:102F5000FEE700F00FF9DFF8F4804FF000094FF0C2
:102F6000805748B9059838B1502080F31188BFF3D5
:102F70004F8FBFF36F8FFEE7FFF7F8FBA56BC5B16F
:102F800051462046FFF70AF86D1EA563206950B12F
:102F900004F1100000F0A6F928B1C8F80070BFF3E2
:102FA0004F8FBFF36F8FFFF701FC012006B0BDE824
:102FB000F087059808B11EB106E0FFF7F7FB27E0A0
:102FC0006846FFF7D1FC0126FFF7F0FBFFF752FD43
:102FD000FFF7CCFB94F94400401C01D184F84490E5
:102FE00094F94500401C01D184F84590FFF7DEFBC1
:102FF00005A9684600F02CF8002820460AD0FFF703
:103000009FFA00F0A7F92046FFF72EF90028B3D069
:103010000020CBE7FFF728F990B104F124000599CF
:10302000FFF7B0FC2046FFF78BFA00F093F9002879
:10303000A2D1C8F80070BFF34F8FBFF36F8F9BE72B
:103040002046FFF77DFA00F085F995E704ED00E0F2
:103050002DE9F0410C46050011D0C4B1FFF786FB05
:10306000174BDA686E682068911B471C17D02F68D1
:103070001B6A9F4219D0964217D8012410E05020B5
:1030800080F31188BFF34F8FBFF36F8FFEE750209F
:1030900080F31188BFF34F8FBFF36F8FFEE70024DB
:1030A000FFF784FB2046BDE8F081884205D9401A2D
:1030B00020602846FFF758FCF1E700202060DCE79D
:1030C0001C0000202DE9FF5F8346DDE90E8799464D
:1030D00016468A469000FFF769FA05001CD05C206E
:1030E000FFF764FA040014D00020256384F8590027
:1030F000CDE90240CDE900874B463246514658465D
:10310000FFF718F82046FEF7B5FE012004B0BDE831
:10311000F09F2846FFF75EFB4FF0FF30F6E7F0B573
:1031200085B0DDE90B640A9DA6B1DCB15C27009790
:103130002663022684F85960002604AFCDE90246D2
:10314000CDE90057FEF7F6FF2046FEF793FE049800
:1031500005B0F0BD502080F31188BFF34F8FBFF34F
:103160006F8FFEE7502080F31188BFF34F8FBFF3BE
:103170006F8FFEE70548416919B1006B18B1002057
:103180007047012070470220704700001C0000209B
:103190000148C068704700001C0000202DE9F04184
:1031A0002E4C0027206B28B1A069401CA061384636
:1031B000BDE8F081E668761CE66013D1606B0068BC
:1031C00038B1502080F31188BFF34F8FBFF36F8F5A
:1031D000FEE7606BA16B6163A063206A401C206204
:1031E000FFF72EF9A06ADFF87880864209D3606B7A
:1031F0000068A0B1606BC068C5686868864211D27B
:10320000A0622068C06A00EB800158F82100012804
:1032100000D90127E0690028C9D00127C7E74FF08E
:10322000FF30EDE7281DFFF745FAA86A18B105F150
:103230001800FFF73FFAE86A2169884200D9206147
:1032400000EB800108EB8100291DFFF783FAE86A93
:103250002168C96A8842CAD30127C8E71C00002038
:10326000A802002070B504004FF0000133D01B4DC0
:103270002868844207D0502080F31188BFF34F8F15
:10328000BFF36F8FFEE7206D38B1401E2065E36C01
:10329000E26A9A421FD040B11DE0502080F31188AD
:1032A000BFF34F8FBFF36F8FFEE7201DFFF702FACA
:1032B000E06CE062C0F13800A061E06A29698842F0
:1032C00000D92861064900EB800001EB8000211D38
:1032D000FFF740FA0121084670BD00001C000020E5
:1032E000A802002070B5C068C46854B104F1180089
:1032F0000646FFF7DFF9144D286B50B131461348ED
:1033000015E0502080F31188BFF34F8FBFF36F8F0C
:10331000FEE7201DFFF7CEF9E06A2969884200D94F
:1033200028610B4900EB800001EB8000211DFFF7B5
:1033300011FAE06A2968C96A884202D90120E86165
:1033400070BD002070BD00001C0000203007002070
:10335000A80200202DE9F0472C4D00242746286BB9
:1033600038B1FFF703FA286B401E2863286B40B181
:1033700046E0502080F31188BFF34F8FBFF36F8F6B
:10338000FEE7A968224E0120D1B3A6F591698046D7
:103390003068E0B1F068C46804F11800FFF78AF9FA
:1033A000201DFFF787F9E06A2969884200D9286162
:1033B00000EB800109EB8100211DFFF7CBF9E06AEA
:1033C0002968C96A8842E3D3C5F81C80E0E70CB1DC
:1033D000FFF736F8AC694CB14FEA0806FFF7DEFE9E
:1033E00000B1EE61641EF9D10020A861E86938B12E
:1033F0000849012738070860BFF34F8FBFF36F8F6D
:10340000FFF7D4F93846BDE8F08700001C00002023
:103410003007002004ED00E010B586B0FEF792FD05
:10342000114C2068B8B100200390049005AA04A9AB
:1034300003A8FFF75DF9DDE9032102208DE807000D
:1034400000230AA10B48059AFFF769FE606010B1DE
:1034500006B0012010BD502080F31188BFF34F8FBC
:10346000BFF36F8FFEE7000058000020546D7220FC
:10347000537663001D2500082DE9FF411E461346C3
:1034800002000A9D4FF0000016D0144C2768002F50
:103490000FD0CDE900130292062917DAFFF76AFE72
:1034A00002284FF000030FD0002269462068FFF782
:1034B00023FC04B0BDE8F081502080F31188BFF3F5
:1034C0004F8FBFF36F8FFEE72A46EEE700233246A9
:1034D00069463846FFF7C0FCEBE7000058000020C3
:1034E0001C35000800000000000000000000000083
:1034F00000000000000200001800000000000000B2
:1035000000000000000000000000000001020304B1
:1035100006070809000000000102030464656661F3
:10352000756C745461736B0048350008000000200E
:10353000A4000000B61C0008EC350008A400002020
:103540009CC60000C61C000800000000000000002F
:10355000000000000100000010000000000000005A
:103560000024F40000000000000000000000000043
:10357000000000000000000000000000000000004B
:10358000000000000000000000000000000000003B
:10359000000000000000000000000000000000002B
:1035A000000000000000000000000000000000001B
:1035B000000000000000000000000000000000000B
:1035C00000000000000000000000000000000000FB
:1035D000000000000000000000000000AAAAAAAA43
:0C35E000000000000000000000000000DF
:040000050800018965
:00000001FF
